:020000040000fa
:080000000002040000000000f2
:020000040000fa
:100400006f8920000e7f24000e018800000000008c
:100410000c000700a0d821000100200011000700f7
:10042000000020000000e000020032000000020096
:10043000000000004a130200000000000040da0043
:100440000000fe004440a900200721000000e00059
:100450000300320000002000a00188004440a800f2
:100460000000060091018800800078000000eb0089
:1004700015003700e280400032a0b4009101ba00bc
:10048000e280400032a0b4009102ba00e280400055
:1004900032a0b4000002eb00472bde00f507b200eb
:1004a000602ce10004003a000059eb008301e900f0
:1004b000fdff3e00040037006128e100010032002a
:1004c0000082eb00040007001101ba000200e00006
:1004d000e8ff3a00000006003159ba008301e90044
:1004e0000c0032002159ba008301e90008003200f3
:1004f0000400e00003003a00e280400032a0b400b3
:10050000f5ff370011d9ba008301e900faff3a007c
:100510008100e800e180400032a0b4000000060045
:100520000040da000000fe00020007000400be00e8
:10053000000006006022b800060220000000d00083
:100540008180d2000482d2008582d2000000a00007
:100550000202520083825a0003003100020242006c
:1005600083824a000000a1000603e900f3ff3a007d
:1005700000000600839f68000100e00002003d00cb
:1005800060001000e08018000300e00002003d0061
:1005900060011100e0811900e6ff07004f00e00054
:1005a00002003b0060001000e08018000000060020
:020000040000fa
:020000040005f5
:0457f800ee9300002c
:020000040000fa
:020000040005f5
:0457fc007f3e0000ec
:020000040000fa
:1000080090020000900200009002000090020000a0
:100018009002000090020000900200009002000090
:100028009002000090020000900200009002000080
:100038009002000090020000900200009002000070
:020000040000fa
:1005f000001e0000000000000000000000000000dd
:1006000000000000000000000000000000000000ea
:1006100000000000000000000000000000000000da
:1006200000000000000000000000000000000000ca
:10063000003b00000000000000000000000000007f
:1006400000000000000000000000000000000000aa
:10065000000000000000000000000000000000009a
:10066000000000000000000000000000000000008a
:1006700080330000000000000000000000000000c7
:10068000000000000000000000000000000000006a
:10069000000000000000000000000000000000005a
:1006a000000000000000000000000000000000004a
:1006b0008071000000000000000000000000000049
:1006c000000000000000000000000000000000002a
:1006d000000000000000000000000000000000001a
:1006e000000000000000000000000000000000000a
:1006f0008071000000000000000000000000000009
:1007000000000000000000000000000000000000e9
:1007100000000000000000000000000000000000d9
:1007200000000000000000000000000000000000c9
:1007300080710000000000000000000000000000c8
:1007400000000000000000000000000000000000a9
:100750000000000000000000000000000000000099
:100760000000000000000000000000000000000089
:100770008071000000000000000000000000000088
:100780000000000000000000000000000000000069
:100790000000000000000000000000000000000059
:1007a0000000000000000000000000000000000049
:1007b0008071000000000000000000000000000048
:1007c0000000000000000000000000000000000029
:1007d0000000000000000000000000000000000019
:1007e0000000000000000000000000000000000009
:1007f0008033000000000000000000000000000046
:1008000000000000000000000000000000000000e8
:1008100000000000000000000000000000000000d8
:1008200000000000000000000000000000000000c8
:10083000003b00000000000000000000000000007d
:1008400000000000000000000000000000000000a8
:100850000000000000000000000000000000000098
:100860000000000000000000000000000000000088
:10087000001f000000000000000000000000000059
:100880000000000000000000000000000000000068
:100890000000000000000000000000000000000058
:1008a0000000000000000000000000000000000048
:1008b0000000000000000000000000000000000038
:100dc000000c000000000000000000000000000017
:100dd0000000000000000000000c00000000000007
:100de0000000000000000000000000000000000003
:100df00000000000000e0000803b0000801d00008d
:100e0000000c0000807b0000003e0000000e00008f
:100e10000007000000380000000c00000000000087
:100e200000000000000000000000000000030000bf
:100e300000000000000e0000803b0000801b00004e
:100e4000801f000000ff000000370000000e0000bf
:100e5000000e0000000c0000807d0000000000007b
:100e6000000000000000000000000000000300007f
:100e700000000000000e0000803b0000001b00008e
:100e8000003c000000df000000330000000e000006
:100e9000001c0000000e0000807f0000000c00001d
:100ea000000000000000000000000000000600003c
:100eb00000000000000c0000803b0000c07f00002c
:100ec000003c000000fe000000370000000e0000a3
:100ed0000018000000070000001e0000000c0000c9
:100ee00000000000000000000000000000060000fc
:100ef00000000000000c000000000000001b0000cb
:100f0000003c0000007e0000003e000000000000e9
:100f10000018000000070000001f0000000c000087
:100f2000000000000000000000000000000c0000b5
:100f300000000000000c000000000000003b00006a
:100f4000001e0000000c0000003c0000000000003b
:100f50000038000000030000003b0000807f00001c
:100f6000000000000000000000000000000c000075
:100f700000000000000c000000000000003f000026
:100f8000800f0000800f0000c07f00000000000004
:100f9000003800000003000000000000000c00000a
:100fa00000000000003f000000000000000c0000f6
:100fb00000000000000c00000000000080ff0000a6
:100fc000800f0000c01e00008067000000000000cd
:100fd000003800000003000000000000000c0000ca
:100fe00000000000000000000000000000180000e9
:100ff00000000000000000000000000000360000bb
:10100000806f0000c01e000080670000000000002c
:10101000003800000007000000000000000c000085
:101020000000000000000000000e0000001800009a
:1010300000000000000e000000000000003600006c
:10104000007f0000c03e000080770000000000002c
:101050000018000000070000000000000000000071
:10106000000e000000000000000e00000030000034
:1010700000000000000e00000000000000760000ec
:10108000000c0000c0730000c03f00000000000022
:10109000001c0000000e0000000000000000000026
:1010a000000e000000000000000e000000300000f4
:1010b0000000000000000000000000000000000030
:1010c000000c000000000000000000000000000014
:1010d000000e0000000c00000000000000000000f6
:1010e000000c0000000000000000000000000000f4
:1010f00000000000000000000000000000000000f0
:1011000000000000000000000000000000000000df
:101110000007000000380000000000000000000090
:10112000001c0000000000000000000000000000a3
:1011300000000000000000000000000000000000af
:10114000000000000000000000000000000000009f
:10115000000000000000000000000000000000008f
:10116000000000000000000000000000000000007f
:10117000000000000000000000000000000000006f
:10118000000000000000000000000000000000005f
:10119000000000000000000000000000000000004f
:1011a000000000000000000000000000000000003f
:1011b000000000000000000000000000000000002f
:1011c000000000000000000000000000000000001f
:1011d000000000000000000000000000000000000f
:1011e00000000000000000000000000000000000ff
:1011f000003f0000000c0000003e0000003e000028
:1012000000070000007f0000001f0000c07f0000fa
:10121000001f0000001f0000000000000000000090
:10122000000000000000000000000000003f00007f
:1012300000330000001c00000033000000730000b9
:10124000000f00000060000080310000c0010000bd
:10125000803100008031000000000000000000002c
:1012600000000000000000000000000080330000cb
:1012700080610000003c000080030000800100004d
:10128000001b000000600000006000008001000002
:1012900080310000c060000000000000000000007d
:1012a00080010000000000000060000080030000da
:1012b00080630000000c000080030000800100003b
:1012c000001b0000006000000060000080010000c2
:1012d00080310000c0600000000e0000000e000021
:1012e0000007000000000000003c00008003000038
:1012f00080670000000c00000003000000030000f5
:1013000000330000003e0000006f000000030000fa
:10131000001b0000c0600000000e0000000e000076
:10132000001c0000807f0000000f00000003000090
:10133000806d0000000c000000070000001e00008f
:101340000033000000030000807100000003000073
:10135000003f0000c033000000000000000000005b
:10136000007000000000000080030000000e00007c
:1013700080790000000c0000000e00000003000057
:101380000063000080010000c06000000006000053
:1013900080310000c01e00000000000000000000be
:1013a000001c0000807f0000000f0000000c000007
:1013b00080710000000c0000001c00008001000093
:1013c000c07f000080010000c06000000006000037
:1013d000c0600000c000000000000000000000002d
:1013e0000007000000000000003c0000001c00009e
:1013f00080610000000c0000001800008001000067
:101400000003000000030000c0600000000c0000aa
:10141000c0600000c00000000000000000000000ec
:1014200080010000000000000060000000000000db
:1014300000330000000c00000030000000730000ca
:10144000000300000063000080310000000c000079
:101450008031000080310000000e0000000c000010
:10146000000000000000000000000000001c000060
:10147000003f0000000c0000807f0000003e0000e4
:1014800000030000003e0000001f000000180000e4
:10149000001f0000001f0000000e0000000c0000f4
:1014a000000000000000000000000000001c000020
:1014b000000000000000000000000000000000002c
:1014c000000000000000000000000000000000001c
:1014d000000000000000000000000000001c0000f0
:1014e00000000000000000000000000000000000fc
:1014f00000000000000000000000000000000000ec
:1015000000000000000000000000000000000000db
:1015100000000000000000000000000000180000b3
:1015200000000000000000000000000000000000bb
:1015300000000000000000000000000000000000ab
:10154000000000000000000000000000000000009b
:10155000000000000000000000000000000000008b
:10156000000000000000000000000000000000007b
:10157000000000000000000000000000000000006b
:10158000000000000000000000000000000000005b
:10159000000000000000000000000000000000004b
:1015a000000000000000000000000000000000003b
:1015b000000000000000000000000000000000002b
:1015c000000000000000000000000000000000001b
:1015d000000000000000000000000000000000000b
:1015e00000000000000000000000000000000000fb
:1015f00000000000000e0000007f0000800f0000cf
:10160000007e0000803f0000803f0000001f0000bf
:1016100080610000803f000000030000c031000036
:1016200000300000c060000080610000001f00006a
:1016300000000000000e000000630000c030000049
:101640000063000000300000003000008031000026
:1016500080610000000c00000003000080330000e7
:1016600000300000c0600000807100008031000088
:1016700000000000001b000080610000003000003e
:1016800080610000003000000030000000300000e9
:1016900080610000000c0000000300000033000027
:1016a00000300000c0710000807100008031000037
:1016b00000000000001b00008061000000600000ce
:1016c0008061000000300000003000000060000079
:1016d00080610000000c00000003000000360000e4
:1016e00000300000c071000080790000c060000080
:1016f00000000000001b000000630000006000000c
:10170000c0600000003000000030000000600000f9
:1017100080610000000c000000030000003c00009d
:1017200000300000c07b000080790000c060000035
:101730008061000080310000007f00000060000038
:10174000c0600000803f0000803f00000067000094
:10175000807f0000000c000000030000003e00003d
:1017600000300000c07b0000807f0000c0600000ef
:1017700080610000803f0000806100000060000088
:10178000c0600000003000000030000080610000f8
:1017900080610000000c000000030000003e00001b
:1017a00000300000c07b0000806f0000c0600000bf
:1017b0008061000080310000c06000000060000017
:1017c00080610000003000000030000080610000f7
:1017d00080610000000c00000003000000370000e2
:1017e00000300000c06e000080670000c060000094
:1017f0008061000080310000c06000000030000007
:1018000080610000003000000030000080310000e6
:1018100080610000000c0000000300008033000025
:1018200000300000c06e00008063000080310000c6
:1018300080630000c060000080610000c0300000d4
:101840000063000000300000003000008031000024
:1018500080610000000c00000007000080310000e3
:1018600000300000c06e0000806300008031000086
:10187000c07e0000c0600000007f0000801f0000ec
:10188000007e0000803f000000300000001f0000cc
:1018900080610000803f0000007e0000c031000039
:1018a000803f0000c064000080610000001f000055
:1018b00000600000000000000000000000000000c8
:1018c0000000000000000000000000000000000018
:1018d0000000000000000000000000000000000008
:1018e00000000000000000000000000000000000f8
:1018f0000060000000000000000000000000000088
:1019000000000000000000000000000000000000d7
:1019100000000000000000000000000000000000c7
:1019200000000000000000000000000000000000b7
:101930000060000000000000000000000000000047
:101940000000000000000000000000000000000097
:101950000000000000000000000000000000000087
:101960000000000000000000000000000000000077
:101970000000000000000000000000000000000067
:101980000000000000000000000000000000000057
:101990000000000000000000000000000000000047
:1019a0000000000000000000000000000000000037
:1019b0000000000000000000000000000000000027
:1019c0000000000000000000000000000000000017
:1019d0000000000000000000000000000000000007
:1019e00000000000000000000000000000000000f7
:1019f000007e0000001f0000007e0000003f00008d
:101a0000c07f000080610000c0600000c060000076
:101a100080710000c0e10000807f0000001f000016
:101a200000300000003e0000000c0000000000003c
:101a3000006300008031000000630000803100007e
:101a4000000c000080610000c0600000c060000069
:101a50008033000080710000800300000018000047
:101a60000030000000060000001e00000000000022
:101a700080610000c0600000806100000060000024
:101a8000000c000080610000c060000040600000a9
:101a9000003b00008033000000030000001800003d
:101aa0000018000000060000001e000000000000fa
:101ab00080610000c06000008061000000600000e4
:101ac000000c00008061000080310000c06e00004a
:101ad000001f0000003b000000070000001800008d
:101ae0000018000000060000003f00000000000099
:101af00080610000c0600000806100000070000094
:101b0000000c00008061000080310000c06e000009
:101b1000001e0000001f0000000e00000018000062
:101b2000000c000000060000003300000000000070
:101b300000630000c060000000630000001e0000a1
:101b4000000c00008061000080310000c07f0000b8
:101b5000000e0000001e0000000c00000018000035
:101b6000000c0000000600008033000000000000b0
:101b7000007e0000c0600000007e00000007000042
:101b8000000c00008061000080310000803f0000f8
:101b9000001e0000000e0000001c000000180000e5
:101ba000000c000000060000806100000000000042
:101bb00000600000c06000000066000080010000be
:101bc000000c000080610000001b0000803f00004e
:101bd000003f0000000c000000380000001800006a
:101be00000060000000600000000000000000000e9
:101bf00000600000c0600000006300008001000081
:101c0000000c000080610000001b0000803b000011
:101c100000330000000c000000300000001800003d
:101c200000060000000600000000000000000000a8
:101c300000600000803100008061000080610000d1
:101c4000000c000000330000000e00008031000096
:101c500080730000000c00000070000000180000fd
:101c6000000300000006000000000000000000006b
:101c700000600000001f000080610000003f0000c5
:101c8000000c0000003f0000000e0000803100004a
:101c9000c0610000000c0000c07f000000180000c0
:101ca000000300000006000000000000000000002b
:101cb000000000000007000000000000000000001d
:101cc0000000000000000000000000000000000014
:101cd00000000000000000000000000000180000ec
:101ce000800100000006000000000000000000006d
:101cf00000000000000300000000000000000000e1
:101d000000000000000000000000000000000000d3
:101d1000000000000000000000000000001f0000a4
:101d200080010000003e000000000000c0ff000035
:101d30000000000080010000000000000000000022
:101d40000000000000000000000000000000000093
:101d50000000000000000000000000000000000083
:101d60000000000000000000000000000000000073
:101d70000000000000000000000000000000000063
:101d80000000000000000000000000000000000053
:101d90000000000000000000000000000000000043
:101da0000000000000000000000000000000000033
:101db000003800000000000000600000000000008b
:101dc0008001000000000000800f00000000000003
:101dd00000600000000e000000070000003000005e
:101de000003c0000000000000000000000000000b7
:101df000003800000000000000600000000000004b
:101e00008001000000000000000c00000000000045
:101e100000600000000e000000070000003000001d
:101e2000000c0000000000000000000000000000a6
:101e3000001c000000000000006000000000000026
:101e40008001000000000000000c00000000000005
:101e50000040000000000000000000000030000012
:101e6000000c000000000000000000000000000066
:101e7000001c0000000000000060000000000000e6
:101e80008001000000000000000c000000000000c5
:101e900000600000000000000000000000300000b2
:101ea000000c000000000000000000000000000026
:101eb00000000000007f0000007f0000801f000085
:101ec000803d0000001f0000807f0000003f0000f8
:101ed000007f0000003e0000003f00008033000053
:101ee000000c0000006d0000006e0000001e0000ed
:101ef00000000000806100008061000000300000f0
:101f00008037000080310000000c0000003300002a
:101f100080610000000600000003000000370000a0
:101f2000000c0000807f0000807b00000033000078
:101f300000000000800100008061000000600000df
:101f40008063000080610000000c0000003300008e
:101f5000806100000006000000030000003e000059
:101f6000000c0000806d00008061000080710000a6
:101f700000000000803f0000806100000060000061
:101f800080610000807f0000000c00000033000032
:101f9000806100000006000000030000003c00001b
:101fa000000c0000806d0000806100008061000076
:101fb00000000000806100008061000000600000ff
:101fc0008061000000600000000c0000003e000086
:101fd000806100000006000000030000003e0000d9
:101fe000000c0000806d0000806100008061000036
:101ff00000000000806100008061000000600000bf
:102000008063000000600000000c00000030000051
:10201000806100000006000000030000003700009f
:10202000000c0000806d00008061000080610000f5
:1020300000000000806100008061000000300000ae
:102040008037000000300000000c0000003000006d
:102050008061000000060000000300000033000063
:10206000000c0000806d0000806100000033000063
:1020700000000000803f0000007f0000801f000083
:10208000801d0000801f0000000c0000003f0000c9
:1020900080610000803f000000030000c0310000ac
:1020a000807f0000806d000080610000001e000045
:1020b0000000000000000000000000000000000020
:1020c000000000000000000000000000806100002f
:1020d00000000000000000000003000000000000fd
:1020e00000000000000000000000000000000000f0
:1020f00000000000000000000000000000000000e0
:1021000000000000000000000000000080610000ee
:1021100000000000000000000006000000000000b9
:1021200000000000000000000000000000000000af
:10213000000000000000000000000000000000009f
:1021400000000000000000000000000080610000ae
:102150000000000000000000000600000000000079
:10216000000000000000000000000000000000006f
:10217000000000000000000000000000000000005f
:10218000000000000000000000000000003f000010
:102190000000000000000000007c000000000000c3
:1021a000000000000000000000000000000000002f
:1021b000000000000000000000000000000000001f
:1021c000000000000000000000000000000000000f
:1021d00000000000000000000000000000000000ff
:1021e000000c0000000000000000000000000000e3
:1021f00000000000000000000000000000000000df
:1022000000000000000000000000000000000000ce
:1022100000000000000000000000000000070000b7
:10222000000c00000038000000000000000000006a
:10223000000000000000000000000000000000009e
:10224000000c000000000000000000000000000082
:10225000000000000000000000000000000e000070
:10226000000c0000001c0000000000000000000046
:10227000000000000000000000000000000000005e
:10228000000c000000000000000000000000000042
:10229000000000000000000000000000000c000032
:1022a000000c0000000c0000000000000000000016
:1022b000007e0000801f000080330000003f00000f
:1022c000807f00008061000080610000c06000002d
:1022d0008061000080610000807f0000000c000031
:1022e000000c0000000c00000000000000000000d6
:1022f00000630000803100000036000080610000b3
:10230000000c00008061000080610000c0600000df
:10231000003300008061000000030000000c00009a
:10232000000c0000000c000000380000000000005d
:102330008061000080610000003800000060000043
:10234000000c00008061000000330000c06000004d
:10235000001e00000033000000060000001c00000a
:10236000000c0000000e0000c0640000000000002f
:10237000806100008061000000300000003c00002f
:10238000000c00008061000000330000c06e0000ff
:10239000000c000000330000000c000000380000ba
:1023a000000c000000070000800300000000000097
:1023b0008061000080610000003000000007000024
:1023c000000c000080610000003f0000803f000022
:1023d000000c000000130000000c0000001c0000b6
:1023e000000c0000000e00000000000000000000d3
:1023f000806100008061000000300000800100006a
:10240000000c000080630000001e0000803b000004
:10241000001e0000001f000000180000000c00005b
:10242000000c0000000c0000000000000000000094
:10243000007b000080370000003000008061000059
:10244000000c000080670000001e0000803b0000c0
:1024500000330000000e000000300000000c0000ff
:10246000000c0000000c0000000000000000000054
:10247000006e0000801d000000300000003f0000e2
:10248000800f0000803d0000000c00008031000043
:102490008061000000060000807f0000000c00004a
:1024a000000c0000000c0000000000000000000014
:1024b000006000008001000000000000000000003b
:1024c000000000000000000000000000000000000c
:1024d00000000000000c000000000000000e0000e2
:1024e000000c0000001c00000000000000000000c4
:1024f00000600000800100000000000000000000fb
:1025000000000000000000000000000000000000cb
:1025100000000000000c00000000000000070000a8
:10252000000c000000380000000000000000000067
:1025300000600000800100000000000000000000ba
:10254000000000000000000000000000000000008b
:102550000000000000180000000000000000000063
:10256000000c00000000000000000000000000005f
:10257000006000008001000000000000000000007a
:10258000000000000000000000000000000000004b
:1025900000000000007800000000000000000000c3
:1025a000000c00000000000000000000000000001f
:1025b000002000000cc400004038000001100000a2
:1025c000a300000000010000131000002608000016
:1025d000510200001218000019140000192f000009
:1025e0002c3e00003f3f00002e7700000b0600004d
:1025f000070d00001dcc0000013f000000ef0000af
:10260000681b0000012f0000578d000036010000fc
:102610000088000080900000d00500000038000015
:102620003cea0000ebec0000ede80000e9f10000fe
:10263000f2270000404100004243000044450000f2
:1026400046470000484900004a4b00004c5000003b
:1026500051520000535400005556000057580000d6
:10266000595a00005b5c00005d0400000508000092
:10267000091600001b1a0000242500002318000082
:10268000190100001f1f00001f1f00001736000067
:04269000280000001e
:020000040000fa
:102694000000fa00e3000700b2010700420407004b
:1026a400d2438000e34380000080eb008080eb0095
:1026b400800f5100818f59008f003200f243800057
:1026c400034480000080eb008080eb00800f510009
:1026d400818f590088003200d2438000e343800098
:1026e40090438000a1438000800f5100818f5900e6
:1026f40007003a00f243800003448000b0438000a6
:10270400c1438000800f5100818f59007a0032004c
:1027140030448000414480006e015000e081580044
:10272400f043800001448000800f5100818f5900e4
:1027340071003c0030448000414480006f0140003f
:10274400e0814800f043800001448000800f510084
:10275400818f5900680035001042800021428000ba
:102764006e015000e0815800d0438000e1438000b6
:10277400800f5100818f59000c003c0010428000f2
:10278400214280006f014000e0814800d043800076
:10279400e1438000800f5100818f59000300350010
:1027a4000080eb00904488005300370030428000e2
:1027b400414280006e015000e0815800d043800007
:1027c400e1438000800f5100818f59000c003c00d0
:1027d40030428000414280006f014000e0814800a7
:1027e400d0438000e1438000800f5100818f590065
:1027f4000300350060982f00904488003e003700a5
:1028040050428000614280006e015000e081580017
:10281400d0438000e1438000800f5100818f590034
:102824000c003c0050428000614280006f01400077
:10283400e0814800d0438000e1438000800f5100d4
:10284400818f590003003500607e23009044880086
:102854002900370070428000814280006e015000e0
:10286400e0815800d0438000e1438000800f510094
:10287400818f59000c003c0070428000814280002e
:102884006f014000e0814800d0438000e1438000b4
:10289400800f5100818f590003003500906720009c
:1028a400904488001400370090428000a1428000c8
:1028b4006e015000e0815800d0438000e143800065
:1028c400800f5100818f59000b003c009042800022
:1028d400a14280006f014000e0814800d0438000a5
:1028e400e1438000800f5100818f590002003500c0
:1028f40000fe2f009044880091448000a044800092
:10290400808f50000d0032009144800062448000aa
:102914008044800063004000554480000102780038
:102924008201780000017800850078000000eb0047
:10293400b502070090448000a044880058040700b2
:102944005ac8bf000004e00008003400814480003d
:10295400a0132000808f50000d003c0080448000b4
:102964006400400080448800090037005ac8bf0052
:102974000004e00006003d0080448000e10f4000b8
:1029840003003400804480006400500080448800c8
:102994008144800070448000808f50001b0032000e
:1029a4008144800070448000808f50000a0034000d
:1029b40093448000654480008044800063014000ab
:1029c400514480008044800003027800850178002f
:1029d4008d0207000b0037008144800070448000a2
:1029e400808f500007003d006344800070448000e5
:1029f400630140005144800070448000f441280089
:102a040081020700804480007044880087c0bf00b2
:102a1400704060000004e000fcff32008780a900e1
:102a24001dff37000000fa000080eb0060198800e9
:102a34009b010700e701070090010700c062a9009d
:102a44000000eb00c0088800f0e12400e0088800e2
:102a54000001280000098800d802a9006c40a800e1
:102a64006c80a8006ca0a800900420000100200045
:102a740010428800214288001042800021428000d8
:102a84003003b0000180b000304288004142880029
:102a940030428000414280003003b0000180b00029
:102aa40050428800614288005042800061428000a8
:102ab4003003b0000180b000704288008142880079
:102ac40070428000814280003003b0000180b00079
:102ad40090428800a1428800304480004144800034
:102ae400ef01400010428000214280006f0140004d
:102af4003044800041448000ee02500010428000c7
:102b0400214280006e0050000002eb008500780036
:102b14003d0207003044800041448000ed01400044
:102b240010428000214280006d014000304480004a
:102b340041448000ec025000104280002142800099
:102b44006c0050000082eb00850078002e02070024
:102b54003044800041448000ef0140003042800056
:102b6400414280006f0140003044800041448000b5
:102b7400ee02500030428000414280006e0050005e
:102b84000002eb00850078001f020700304480003b
:102b940041448000ed014000304280004142800009
:102ba4006d0140003044800041448000ec0250003c
:102bb40030428000414280006c00500064982f0035
:102bc40085007800100207003044800041448000f2
:102bd400ef01400050428000614280006f014000dc
:102be4003044800041448000ee0250005042800096
:102bf400614280006e0050000002eb008500780006
:102c0400010207003044800041448000ed0140008f
:102c140050428000614280006d01400030448000d9
:102c240041448000ec025000504280006142800028
:102c34006c005000647e230085007800f2010700d8
:102c44003044800041448000ef0140007042800025
:102c5400814280006f014000304480004144800084
:102c6400ee02500070428000814280006e005000ed
:102c74000002eb0085007800e30107003044800087
:102c840041448000ed014000704280008142800098
:102c94006d0140003044800041448000ec0250004b
:102ca40070428000814280006c00500094672000d4
:102cb40085007800d401070030448000414480003e
:102cc400ef01400090428000a14280006f0140006b
:102cd4003044800041448000ee0250009042800065
:102ce400a14280006e0050000002eb0085007800d5
:102cf400c50107003044800041448000ed014000dc
:102d040090428000a14280006d0140003044800068
:102d140041448000ec02500090428000a1428000b7
:102d24006c00500004fe2f0085007800b6010700f7
:102d3400e1852000f04128000e0207006344800072
:102d4400804480006301400051448000804480003e
:102d54000082eb00ac0107004b0307000080fa007f
:102d6400000006000000fa00e04280000000e800d5
:102d7400e0428800e142800040062000808f50003d
:102d840006003a000002eb0053002000520020002d
:102d94008000eb000000eb009b010700e142800093
:102da400700c2000808f5000080036000000eb00fb
:102db400e0428800f4412800530020005200200023
:102dc4008000eb000000eb008f0107000080fa0098
:102dd400000006000000fa0080012000800888003e
:102de4000000eb00400888000000eb003008880079
:102df40011e1a8000080fa00000006000000fa00bb
:102e040011e1a90030088000010020000040880082
:102e1400114088004008800001002000c000dd004f
:102e2400000020000001be0000408000114080002e
:102e34000200400083804800004088001140880060
:102e440000408000114080008100d1000080d30048
:102e540000408800114088000080fa00000006004d
:102e64000200fa00004f7800114798001e407800d5
:102e740065e8b7001e40900066e8b7005186200060
:102e840070c0b3003a0007005186200070c0b30040
:102e94006000070051862000007e20000200070029
:102ea4000080fa00000006000600fa0010079800ef
:102eb400210798002e009000104078000000fb00cd
:102ec4007800b90073005000b04188002e009000d3
:102ed4000000e800104078000000fb006c00b9001e
:102ee40067005000c04188002e0090009040780098
:102ef400114798002e0090000000e800104f780061
:102f04009e40780068c040001e0290008041780016
:102f14001e4190009e4078001e409000680107000a
:102f24002e0090000080e800200798000a00370077
:102f34002e009000904078001e009000b101070020
:102f4400c04180006c004000c04188002e00900009
:102f54000000e800200798002e0090001040780040
:102f64000004e000f2ff3a000080fa0000000600ce
:102f74000600fa00881f780020479800210798006f
:102f84002e4090000000fb00000fe8001300370003
:102f94001e007800800078002e009000008440001d
:102fa4000040800011408000a200200003002000a7
:102fb4005cf507000043b000004c7800004080003e
:102fc40011408000a20020000300200058f50700f3
:102fd40000408800114088001e0fe90020002000f6
:102fe4009e0f1000eaff3c001e007800800078006d
:102ff4002e009000008140000040800011408000bd
:103004000043b000004978004f0478000080fa00c3
:10301400000006000600fa002047980021079800e7
:1030240020002000000f78000d0037009e0078007b
:1030340050862000008040009040780000c3b30018
:1030440080cf50000b003a009e007800508620008c
:103054008080400000c2b300804878001e0fe80062
:103064002e4090000000fb000000e8009e0f50007e
:10307400eeff3c000080fa00000006000000fa00a9
:10308400f4412800f30e2000f21320008000eb002e
:103094000000eb00dc0007000080fa0000000600de
:1030a4000200fa00d222a900d022a900c9e2a90094
:1030b400eb82a800e982a9000000eb001030880030
:1030c4000000eb00603088000000eb000030880056
:1030d4003160200091407800c0cfb30000c0600090
:1030e4000014a00003e6b70002c6bf00f043b2001c
:1030f40002e6b700216020009140780030ccb30094
:1031040000c060000024a00002e6b7002160200097
:1031140091407800c0cfb30000c0600002e6b70061
:103124000346a9000106a8000126a80001e6a8009c
:10313400d222a8004001200040408800050037004a
:10314400a0022000000f78001e0fe9001e00e0001e
:10315400fdff3a00404080000000e9004040880044
:10316400404080000000e000f5ff3a000080fa00d3
:10317400000006000200fa00004f78001147980092
:10318400eb82a900cbe2a9001e80fb00403088003e
:1031940003c6bf0001c8b300014060000004e000a2
:1031a400fbff3200cbe2a8001e4090000080fb0031
:1031b4004030880003c6bf0001c8b300014060006e
:1031c4000004e000fbff3200eb82a8000080fa005c
:1031d400000006000600fa000000eb00200798003b
:1031e40022003700ae009000802d29006140780055
:1031f40000417800ae009000103129006140780051
:1032040082407800dbff0700ae00900010312900f7
:1032140061407800ff4f500011003a00401f200029
:103224004040880008003700a002200010079800e2
:103234001e0090000000e900100798001e00900096
:103244000000e000faff3a00404080000000e9007e
:1032540040408800404080000000e000f2ff3a0057
:103264002e0090000000e800200798002e00900037
:103274001131290060c078000004e000d9ff3a0051
:1032840000fa20004040880005003700a00220001a
:10329400000f78001e0fe9001e00e000fdff3a0059
:1032a400404080000000e900404088004040800029
:1032b4000000e000f5ff3a00c1c3b30080c2b300d0
:1032c400acff07000080fa00000006000400fa00ca
:1032d400000f780011079800cbe2a900200020001d
:1032e4004030880003c6bf0001c8b300014060003d
:1032f4000004e000fbff3200cbe2a8001e007800cf
:103304004880de004030880003c6bf0001c8b30017
:10331400014060000004e000fbff3200cbe2a900a2
:10332400300020004030880003c6bf0001c8b3004d
:10333400014060000004e000fbff3200cbe2a80083
:103344001e0078004030880003c6bf0001c8b300e7
:10335400014060000004e000fbff3200cbe2a90062
:10336400600020004030880003c6bf0001c8b300dd
:10337400014060000004e000fbff3200cbe2a80043
:103384001e0090004880de004030880003c6bf0065
:1033940001c8b300014060000004e000fbff3200fc
:1033a400cbe2a900700020004030880003c6bf00b3
:1033b40001c8b300014060000004e000fbff3200dc
:1033c400cbe2a8001e0090004030880003c6bf0076
:1033d40001c8b300014060000004e000fbff3200bc
:1033e400cbe2a900200220004030880003c6bf00c1
:1033f40001c8b300014060000004e000fbff32009c
:103404000080fa00000006000e00fa002007980071
:103414003107980042079800530798006407980002
:10342400ed82a9003e009000000f78001e003700d6
:103434009e0078002e009000a4ff07002e0090004c
:103444001007980013003700cbe2a8006e0090002c
:103454004480de004030880003c6bf0001c8b300ca
:10346400014060000004e000fbff32006e009000a9
:103474004030880003c6bf0001c8b30001406000ab
:103484000004e000fbff32001e0090000000e80092
:10349400100798009e0090004e009000808f50000e
:1034a400e9ff34001e0fe8005e0090009e0f10003c
:1034b400dfff3400ed82a8000080fa00000006005f
:1034c4000e00fa00004f9800114f9800224f980008
:1034d400334f9800640798000e4890000000fb00ea
:1034e4007800b9007b005000300798002e48900007
:1034f4000000fb007800b90063004000200798003a
:103504001e4890000000fb006c00b9006a005000e7
:10351400100798003e4890000000fb006c00b900c2
:10352400680f40002e009000e60040001e00780066
:10353400660140003e009000e60250001e0090002c
:10354400660050000082eb0081017800850078005d
:10355400adff07006e029000ae0190001e017800de
:10356400be0090001e009000a7ff07000080fa0034
:10357400000006000400fa00000f7800110798000c
:103584001e009000104078000000fb007800b90095
:1035940073005000b04188001e0090000000e80055
:1035a400104078000000fb006c00b9006700500078
:1035b400c04188001e0090000080e80010079800b9
:1035c4000a0037001e009000904078001e0078002a
:1035d4000c000700c04180006c004000c04188001e
:1035e4001e0090000000e800100798001e009000e4
:1035f400104078000004e000f2ff3a000080fa0076
:10360400000006000c00fa0040079800214f9800c3
:10361400ed82a9002e4890000000fb00020120006a
:10362400110009000200d8000000fb004400dd0086
:10363400300798002e4890000000fb000201200093
:10364400110009000200d8008000fd000000fb000a
:10365400200798000000eb00100798004c0037008a
:103664000000eb00000f780043003700be0090001c
:103674001e00900000804000c400dd002e00900079
:103684000080400080004000802d28000080400021
:1036940090007800020120001e0051000088de0026
:1036a400610060000004e00019003200b1418000b4
:1036b4001e0090000080400000017800c14180009d
:1036c4001e0078000080400082007800fffe0700a2
:1036d400cbe2a8000080eb004030880003c6bf00a6
:1036e40001c8b300014060000004e000fbff3200a9
:1036f4000080eb004030880003c6bf0001c8b3005f
:10370400014060000004e000fbff320019003700b4
:10371400b14180001e00900000804000000178004c
:10372400c14180001e0078000080400082007800c3
:10373400e6fe0700cbe2a8004e0090004480de00c5
:103744004030880003c6bf0001c8b30001406000d8
:103754000004e000fbff32004e009000403088007f
:1037640003c6bf0001c8b300014060000004e000cc
:10377400fbff32001e0fe800b00020009e0f100077
:10378400baff34001e0090000000e8001007980003
:103794001e009000ef0f5000b1ff3400ed82a8002e
:1037a4000080fa00000006000400fa005e00070032
:1037b400100798005c000700000f78001e009000be
:1037c4001e005000e40f50001d003c001e0090003d
:1037d4001e005000e50f4000190034001e00900048
:1037e4001e0040000080d100cf80de00d04388005e
:1037f400e1438800d2438000e3438000400020007e
:1038040001002000800f5100818f5900070034000f
:10381400d2438000e3438000b01320000100200065
:10382400800f5100818f5900090034000080eb00a3
:103834008080eb00d0438800e14388000400370017
:103844000080eb008080eb00d0438800e1438800d7
:1038540061000700100798005f000700000f780060
:103864001e0090001e005000e40f50001d003c009c
:103874001e0090001e005000e50f400019003400a7
:103884001e0090001e0040000080d100cf80de00aa
:10389400f043880001448800f24380000344800020
:1038a4004000200001002000800f5100818f59004a
:1038b40007003400f243800003448000b00e20006f
:1038c40001002000800f5100818f5900090034004d
:1038d4000080eb008080eb00f04388000144880006
:1038e400040037000080eb008080eb00f043880088
:1038f400014488000080fa00000006000000fa007d
:10390400000e2800001988000000eb001019880040
:10391400f0832100201988000000eb008019880042
:103924000080fa00000006000000fa00f3ff070020
:103934002da3a9002d63a900c9a2a800c962a800eb
:103944002d83a8002d43a800c982a900c942a9005b
:10395400cd82a800cd42a900d000200040198800e3
:103964002023a80020c3bf00614060000004e000e1
:10397400fcff3200001880006103b8008600780064
:1039840000142000000ab8006030b9000501780076
:10399400000141000014200000b8b90000014100fa
:1039a4008202780000c42500410020000400500079
:1039b40085805800f232200003002000ecf207005a
:1039c40030418800414188003041800041418000fd
:1039d4000080fa00000006000000fa00c7ff07009c
:1039e4002d83a9002d43a900c982a800c942a800bb
:1039f4002da3a8002d63a800c9a2a900c962a9002b
:103a0400cda2a800cd62a900c00020004019880002
:103a14002023a80020c3bf00614060000004e00030
:103a2400fcff3200001880006103b80086007800b3
:103a3400000f2000000ab8006030b90005017800ca
:103a440000014100000f200000b8b900000141004e
:103a54008202780000f62a00f1ff2f0004004000e3
:103a6400858048006231200003002000c0f2070076
:103a740050418800614188005041800061418000cc
:103a84000080fa00000006000000fa0050168000d2
:103a94006c006000b04288000080fa00000006005c
:103aa4000000fa000040eb005ae8b700501680000e
:103ab4006c006000c0428800c1428000b0428000b7
:103ac400808f500010003200c0428000000040008f
:103ad40080007800b0428000008068004300de006f
:103ae400610060000004e0000300320010c0b30075
:103af4005ae8b7000200370000c0eb005ae8b700ec
:103b0400c0428000b04288000080fa000000060035
:020000040000fa
:103b14005c0800003a00000002000000630001009d
:103b2400014754004a420000524330003030300014
:103b3400303030004073000000a000000000780026
:103b440000000000ffffff00ffffff00ffff000079
:103b5400000000001e00000000e00000ef00000074
:103b640000000000ffffff00ff000000000800004d
:0c3b74005c0000000000000000000000e9
:00000001FF
